{
  "address": "0x40be3c96D6bC227a63b56af6BeFb4a6084dff364",
  "abi": [
    {
      "inputs": [
        {
          "internalType": "contract IEAS",
          "name": "eas",
          "type": "address"
        },
        {
          "internalType": "contract ISecureCIRegistry",
          "name": "secureCIRegistry",
          "type": "address"
        }
      ],
      "stateMutability": "nonpayable",
      "type": "constructor"
    },
    {
      "inputs": [],
      "name": "AccessDenied",
      "type": "error"
    },
    {
      "inputs": [],
      "name": "InsufficientValue",
      "type": "error"
    },
    {
      "inputs": [],
      "name": "InvalidEAS",
      "type": "error"
    },
    {
      "inputs": [],
      "name": "InvalidLength",
      "type": "error"
    },
    {
      "inputs": [],
      "name": "NotPayable",
      "type": "error"
    },
    {
      "anonymous": false,
      "inputs": [],
      "name": "DomainReported",
      "type": "event"
    },
    {
      "inputs": [
        {
          "components": [
            {
              "internalType": "bytes32",
              "name": "uid",
              "type": "bytes32"
            },
            {
              "internalType": "bytes32",
              "name": "schema",
              "type": "bytes32"
            },
            {
              "internalType": "uint64",
              "name": "time",
              "type": "uint64"
            },
            {
              "internalType": "uint64",
              "name": "expirationTime",
              "type": "uint64"
            },
            {
              "internalType": "uint64",
              "name": "revocationTime",
              "type": "uint64"
            },
            {
              "internalType": "bytes32",
              "name": "refUID",
              "type": "bytes32"
            },
            {
              "internalType": "address",
              "name": "recipient",
              "type": "address"
            },
            {
              "internalType": "address",
              "name": "attester",
              "type": "address"
            },
            {
              "internalType": "bool",
              "name": "revocable",
              "type": "bool"
            },
            {
              "internalType": "bytes",
              "name": "data",
              "type": "bytes"
            }
          ],
          "internalType": "struct Attestation",
          "name": "attestation",
          "type": "tuple"
        }
      ],
      "name": "attest",
      "outputs": [
        {
          "internalType": "bool",
          "name": "",
          "type": "bool"
        }
      ],
      "stateMutability": "payable",
      "type": "function"
    },
    {
      "inputs": [],
      "name": "isPayable",
      "outputs": [
        {
          "internalType": "bool",
          "name": "",
          "type": "bool"
        }
      ],
      "stateMutability": "pure",
      "type": "function"
    },
    {
      "inputs": [
        {
          "components": [
            {
              "internalType": "bytes32",
              "name": "uid",
              "type": "bytes32"
            },
            {
              "internalType": "bytes32",
              "name": "schema",
              "type": "bytes32"
            },
            {
              "internalType": "uint64",
              "name": "time",
              "type": "uint64"
            },
            {
              "internalType": "uint64",
              "name": "expirationTime",
              "type": "uint64"
            },
            {
              "internalType": "uint64",
              "name": "revocationTime",
              "type": "uint64"
            },
            {
              "internalType": "bytes32",
              "name": "refUID",
              "type": "bytes32"
            },
            {
              "internalType": "address",
              "name": "recipient",
              "type": "address"
            },
            {
              "internalType": "address",
              "name": "attester",
              "type": "address"
            },
            {
              "internalType": "bool",
              "name": "revocable",
              "type": "bool"
            },
            {
              "internalType": "bytes",
              "name": "data",
              "type": "bytes"
            }
          ],
          "internalType": "struct Attestation[]",
          "name": "attestations",
          "type": "tuple[]"
        },
        {
          "internalType": "uint256[]",
          "name": "values",
          "type": "uint256[]"
        }
      ],
      "name": "multiAttest",
      "outputs": [
        {
          "internalType": "bool",
          "name": "",
          "type": "bool"
        }
      ],
      "stateMutability": "payable",
      "type": "function"
    },
    {
      "inputs": [
        {
          "components": [
            {
              "internalType": "bytes32",
              "name": "uid",
              "type": "bytes32"
            },
            {
              "internalType": "bytes32",
              "name": "schema",
              "type": "bytes32"
            },
            {
              "internalType": "uint64",
              "name": "time",
              "type": "uint64"
            },
            {
              "internalType": "uint64",
              "name": "expirationTime",
              "type": "uint64"
            },
            {
              "internalType": "uint64",
              "name": "revocationTime",
              "type": "uint64"
            },
            {
              "internalType": "bytes32",
              "name": "refUID",
              "type": "bytes32"
            },
            {
              "internalType": "address",
              "name": "recipient",
              "type": "address"
            },
            {
              "internalType": "address",
              "name": "attester",
              "type": "address"
            },
            {
              "internalType": "bool",
              "name": "revocable",
              "type": "bool"
            },
            {
              "internalType": "bytes",
              "name": "data",
              "type": "bytes"
            }
          ],
          "internalType": "struct Attestation[]",
          "name": "attestations",
          "type": "tuple[]"
        },
        {
          "internalType": "uint256[]",
          "name": "values",
          "type": "uint256[]"
        }
      ],
      "name": "multiRevoke",
      "outputs": [
        {
          "internalType": "bool",
          "name": "",
          "type": "bool"
        }
      ],
      "stateMutability": "payable",
      "type": "function"
    },
    {
      "inputs": [
        {
          "components": [
            {
              "internalType": "bytes32",
              "name": "uid",
              "type": "bytes32"
            },
            {
              "internalType": "bytes32",
              "name": "schema",
              "type": "bytes32"
            },
            {
              "internalType": "uint64",
              "name": "time",
              "type": "uint64"
            },
            {
              "internalType": "uint64",
              "name": "expirationTime",
              "type": "uint64"
            },
            {
              "internalType": "uint64",
              "name": "revocationTime",
              "type": "uint64"
            },
            {
              "internalType": "bytes32",
              "name": "refUID",
              "type": "bytes32"
            },
            {
              "internalType": "address",
              "name": "recipient",
              "type": "address"
            },
            {
              "internalType": "address",
              "name": "attester",
              "type": "address"
            },
            {
              "internalType": "bool",
              "name": "revocable",
              "type": "bool"
            },
            {
              "internalType": "bytes",
              "name": "data",
              "type": "bytes"
            }
          ],
          "internalType": "struct Attestation",
          "name": "attestation",
          "type": "tuple"
        }
      ],
      "name": "revoke",
      "outputs": [
        {
          "internalType": "bool",
          "name": "",
          "type": "bool"
        }
      ],
      "stateMutability": "payable",
      "type": "function"
    },
    {
      "inputs": [],
      "name": "version",
      "outputs": [
        {
          "internalType": "string",
          "name": "",
          "type": "string"
        }
      ],
      "stateMutability": "view",
      "type": "function"
    },
    {
      "stateMutability": "payable",
      "type": "receive"
    }
  ],
  "transactionHash": "0x41065579a0eefe9ffe929aa0ed913ad4f2ab7a64c75c9ad7c89b654d55301399",
  "args": [
    "0xC2679fBD37d54388Ce493F1DB75320D236e1815e",
    "0xBE9e4FB335D07eF7bEFC9b2d1c96b568Fcde2251"
  ],
  "numDeployments": 1,
  "solcInputHash": "5f1d8fac6d90f329660d9ed471e42c1d",
  "bytecode": "0x61014060405234801561001157600080fd5b50604051610c2d380380610c2d8339810160408190526100309161009e565b6001608052600360a052600060c052816001600160a01b038116610067576040516341bc07ff60e11b815260040160405180910390fd5b6001600160a01b0390811660e0529182166101205216610100526100d8565b6001600160a01b038116811461009b57600080fd5b50565b600080604083850312156100b157600080fd5b82516100bc81610086565b60208401519092506100cd81610086565b809150509250929050565b60805160a05160c05160e0516101005161012051610b09610124600039600050506000610589015260006104d20152600061019901526000610170015260006101470152610b096000f3fe6080604052600436106100695760003560e01c8063ce46e04611610043578063ce46e04614610106578063e49617e11461011a578063e60c35051461012d57600080fd5b806354fd4d50146100a557806388e5b2d9146100d057806391db0b7e146100f357600080fd5b366100a0576040517f1574f9f300000000000000000000000000000000000000000000000000000000815260040160405180910390fd5b600080fd5b3480156100b157600080fd5b506100ba610140565b6040516100c79190610748565b60405180910390f35b6100e36100de3660046107e5565b6101e3565b60405190151581526020016100c7565b6100e36101013660046107e5565b6102e4565b34801561011257600080fd5b5060006100e3565b6100e3610128366004610851565b6103d5565b6100e361013b366004610851565b6103e8565b606061016b7f00000000000000000000000000000000000000000000000000000000000000006103fc565b6101947f00000000000000000000000000000000000000000000000000000000000000006103fc565b6101bd7f00000000000000000000000000000000000000000000000000000000000000006103fc565b6040516020016101cf93929190610894565b604051602081830303815290604052905090565b60006101ed6104ba565b83828114610227576040517f947d5a8400000000000000000000000000000000000000000000000000000000815260040160405180910390fd5b3460005b828110156102d45760008686838181106102475761024761090a565b9050602002013590508281111561028a576040517f1101129400000000000000000000000000000000000000000000000000000000815260040160405180910390fd5b6102b789898481811061029f5761029f61090a565b90506020028101906102b19190610939565b50600190565b6102c85760009450505050506102dc565b9091039060010161022b565b506001925050505b949350505050565b60006102ee6104ba565b83828114610328576040517f947d5a8400000000000000000000000000000000000000000000000000000000815260040160405180910390fd5b3460005b828110156102d45760008686838181106103485761034861090a565b9050602002013590508281111561038b576040517f1101129400000000000000000000000000000000000000000000000000000000815260040160405180910390fd5b6103b88989848181106103a0576103a061090a565b90506020028101906103b29190610939565b8261052b565b6103c95760009450505050506102dc565b9091039060010161032c565b60006103df6104ba565b60015b92915050565b60006103f26104ba565b6103e2823461052b565b6060600061040983610642565b600101905060008167ffffffffffffffff81111561042957610429610977565b6040519080825280601f01601f191660200182016040528015610453576020820181803683370190505b5090508181016020015b7fffffffffffffffffffffffffffffffffffffffffffffffffffffffffffffffff017f3031323334353637383961626364656600000000000000000000000000000000600a86061a8153600a850494508461045d57509392505050565b3373ffffffffffffffffffffffffffffffffffffffff7f00000000000000000000000000000000000000000000000000000000000000001614610529576040517f4ca8886700000000000000000000000000000000000000000000000000000000815260040160405180910390fd5b565b60008061053c6101208501856109a6565b8101906105499190610a0b565b6040517f9e7bb23300000000000000000000000000000000000000000000000000000000815290915073ffffffffffffffffffffffffffffffffffffffff7f00000000000000000000000000000000000000000000000000000000000000001690639e7bb233906105be908490600401610748565b6020604051808303816000875af11580156105dd573d6000803e3d6000fd5b505050506040513d601f19601f820116820180604052508101906106019190610ada565b61060f5760009150506103e2565b6040517fb7731bf2b47ee381d9aef4125e00741f80466c5eb6848b53af1a1ef8f4a291e290600090a15060019392505050565b6000807a184f03e93ff9f4daa797ed6e38ed64bf6a1f010000000000000000831061068b577a184f03e93ff9f4daa797ed6e38ed64bf6a1f010000000000000000830492506040015b6d04ee2d6d415b85acef810000000083106106b7576d04ee2d6d415b85acef8100000000830492506020015b662386f26fc1000083106106d557662386f26fc10000830492506010015b6305f5e10083106106ed576305f5e100830492506008015b612710831061070157612710830492506004015b60648310610713576064830492506002015b600a83106103e25760010192915050565b60005b8381101561073f578181015183820152602001610727565b50506000910152565b6020815260008251806020840152610767816040850160208701610724565b601f017fffffffffffffffffffffffffffffffffffffffffffffffffffffffffffffffe0169190910160400192915050565b60008083601f8401126107ab57600080fd5b50813567ffffffffffffffff8111156107c357600080fd5b6020830191508360208260051b85010111156107de57600080fd5b9250929050565b600080600080604085870312156107fb57600080fd5b843567ffffffffffffffff8082111561081357600080fd5b61081f88838901610799565b9096509450602087013591508082111561083857600080fd5b5061084587828801610799565b95989497509550505050565b60006020828403121561086357600080fd5b813567ffffffffffffffff81111561087a57600080fd5b8201610140818503121561088d57600080fd5b9392505050565b600084516108a6818460208901610724565b80830190507f2e0000000000000000000000000000000000000000000000000000000000000080825285516108e2816001850160208a01610724565b600192019182015283516108fd816002840160208801610724565b0160020195945050505050565b7f4e487b7100000000000000000000000000000000000000000000000000000000600052603260045260246000fd5b600082357ffffffffffffffffffffffffffffffffffffffffffffffffffffffffffffffec183360301811261096d57600080fd5b9190910192915050565b7f4e487b7100000000000000000000000000000000000000000000000000000000600052604160045260246000fd5b60008083357fffffffffffffffffffffffffffffffffffffffffffffffffffffffffffffffe18436030181126109db57600080fd5b83018035915067ffffffffffffffff8211156109f657600080fd5b6020019150368190038213156107de57600080fd5b600060208284031215610a1d57600080fd5b813567ffffffffffffffff80821115610a3557600080fd5b818401915084601f830112610a4957600080fd5b813581811115610a5b57610a5b610977565b604051601f82017fffffffffffffffffffffffffffffffffffffffffffffffffffffffffffffffe0908116603f01168101908382118183101715610aa157610aa1610977565b81604052828152876020848701011115610aba57600080fd5b826020860160208301376000928101602001929092525095945050505050565b600060208284031215610aec57600080fd5b8151801515811461088d57600080fdfea164736f6c6343000814000a",
  "devdoc": {
    "kind": "dev",
    "methods": {
      "attest((bytes32,bytes32,uint64,uint64,uint64,bytes32,address,address,bool,bytes))": {
        "params": {
          "attestation": "The new attestation."
        },
        "returns": {
          "_0": "Whether the attestation is valid."
        }
      },
      "isPayable()": {
        "returns": {
          "_0": "Whether the resolver supports ETH transfers."
        }
      },
      "multiAttest((bytes32,bytes32,uint64,uint64,uint64,bytes32,address,address,bool,bytes)[],uint256[])": {
        "params": {
          "attestations": "The new attestations.",
          "values": "Explicit ETH amounts which were sent with each attestation."
        },
        "returns": {
          "_0": "Whether all the attestations are valid."
        }
      },
      "multiRevoke((bytes32,bytes32,uint64,uint64,uint64,bytes32,address,address,bool,bytes)[],uint256[])": {
        "params": {
          "attestations": "The existing attestations to be revoked.",
          "values": "Explicit ETH amounts which were sent with each revocation."
        },
        "returns": {
          "_0": "Whether the attestations can be revoked."
        }
      },
      "revoke((bytes32,bytes32,uint64,uint64,uint64,bytes32,address,address,bool,bytes))": {
        "params": {
          "attestation": "The existing attestation to be revoked."
        },
        "returns": {
          "_0": "Whether the attestation can be revoked."
        }
      },
      "version()": {
        "returns": {
          "_0": "Semver contract version as a string."
        }
      }
    },
    "version": 1
  },
  "userdoc": {
    "kind": "user",
    "methods": {
      "attest((bytes32,bytes32,uint64,uint64,uint64,bytes32,address,address,bool,bytes))": {
        "notice": "Processes an attestation and verifies whether it's valid."
      },
      "isPayable()": {
        "notice": "Checks if the resolver can be sent ETH."
      },
      "multiAttest((bytes32,bytes32,uint64,uint64,uint64,bytes32,address,address,bool,bytes)[],uint256[])": {
        "notice": "Processes multiple attestations and verifies whether they are valid."
      },
      "multiRevoke((bytes32,bytes32,uint64,uint64,uint64,bytes32,address,address,bool,bytes)[],uint256[])": {
        "notice": "Processes revocation of multiple attestation and verifies they can be revoked."
      },
      "revoke((bytes32,bytes32,uint64,uint64,uint64,bytes32,address,address,bool,bytes))": {
        "notice": "Processes an attestation revocation and verifies if it can be revoked."
      },
      "version()": {
        "notice": "Returns the full semver contract version."
      }
    },
    "version": 1
  },
  "storageLayout": {
    "storage": [],
    "types": null
  }
}